:020000040800F2
:1000000008210020E5030008ED030008EF030008C5
:10001000F1030008F3030008F503000800000000E6
:10002000000000000000000000000000B502000811
:10003000F9030008000000006D030008D103000868
:10004000FF030008FF030008FF030008FF03000888
:10005000FF030008FF030008FF030008FF03000878
:10006000FF030008FF030008FF030008FF03000868
:10007000FF030008FF030008FF030008FF03000858
:10008000FF030008FF030008FF030008FF03000848
:10009000FF030008FF030008FF030008FF03000838
:1000A000FF030008FF030008FF030008FF03000828
:1000B000FF030008FF030008FF030008FF03000818
:1000C000FF030008FF030008FF030008FF03000808
:1000D000FF030008FF030008FF030008FF030008F8
:1000E000FF030008FF030008FF030008FF030008E8
:1000F000FF030008FF030008FF030008FF030008D8
:10010000FF030008FF030008FF030008FF030008C7
:10011000FF030008FF030008FF030008FF030008B7
:10012000FF030008FF030008FF030008FF030008A7
:10013000FF030008FF030008FF030008FF03000897
:10014000FF030008FF030008FF030008FF03000887
:10015000FF030008FF030008FF030008FF03000877
:10016000FF030008FF030008FF030008FF03000867
:10017000FF030008FF030008FF0300080000000061
:10018000FF030008FF03000800F002F800F03CF84D
:100190000AA090E8000C82448344AAF10107DA45E2
:1001A00001D100F031F8AFF2090EBAE80F0013F0F8
:1001B000010F18BFFB1A43F0010318478428000001
:1001C000A4280000103A24BF78C878C1FAD8520792
:1001D00024BF30C830C144BF04680C6070470000C1
:1001E0000023002400250026103A28BF78C1FBD840
:1001F000520728BF30C148BF0B6070471FB502F0DF
:10020000DDFB1FBD10B510BD00F054F91146FFF71E
:10021000F5FF0FB400F00CF80FBC01F01BFA00F072
:1002200005F903B4FFF7EEFF03BC00F03DF9000051
:1002300004B001F01DFA0448002101F085FA01F034
:1002400029FA00F0F3F800001C00002080F3098870
:100250007047EFF309807047684680F309880448C7
:100260000078C00714BF0220032080F31488704771
:10027000002A0008DFF818C0EFF305831B0618BF3B
:100280006047EFF31483DB0708BF604700DF704768
:1002900033180008DFF818C0EFF305831B0618BFFA
:1002A0006047EFF31483DB0708BF604700DF704748
:1002B000A91A0008EFF30980816911F8021CE1BB5B
:1002C00090E80F1010B5E047BDE81040EFF3098C3F
:1002D0008CE80700214B93E80600914208BF704765
:1002E00041B91EF0100F16D11D49086820F0010019
:1002F000086010E01EF0100F06BF2CED108A0120E0
:10030000002081F825002CE9F00FC1F828C00CB4BA
:1003100001F07EFF0CBC1A60D2F828C0BCE8F00FD8
:1003200092F8250000280EBF6FF0020E6FF0120E3B
:10033000BCEC108A8CF30988704710B5094A126822
:10034000914209D8084C54F8214090E80F10A0477A
:10035000EFF3098C8CE80F0010BD00004400002072
:1003600034EF00E0000500080005000810B501F0BA
:1003700013FEBDE81040154B93E80600914208BFFC
:100380007047EFF3098C1EF0100F06BF2CED108A9A
:100390000120002081F825002CE9F00FC1F828C0C9
:1003A0000CB401F035FF0CBC1A60D2F828C0BCE8D0
:1003B000F00F92F8250000280EBF6FF0020E6FF0CC
:1003C000120EBCEC108A8CF30988704744000020A0
:1003D00010B501F0E5FFCCE710B501F029FA01F006
:1003E000DFFFC6E70948804709480047FEE7FEE708
:1003F000FEE7FEE7FEE7FEE7FEE7FEE7FEE7FEE7D5
:1004000004480549054A064B704700005913000887
:1004100089010008081B002008210020081D002079
:10042000081D002000487047A41A002010B504469B
:10043000AFF300802046BDE81040FFF7F2BE10B5D4
:10044000203AC0F00B80B1E81850203AA0E81850CC
:10045000B1E81850A0E81850BFF4F5AF5FEA027C8D
:1004600024BFB1E81850A0E8185044BF18C918C0FC
:10047000BDE810405FEA827C24BF51F8043B40F89D
:10048000043B08BF7047D20728BF31F8023B48BF82
:1004900011F8012B28BF20F8023B48BF00F8012BC0
:1004A000704770477047704701491820ABBEFEE7A0
:1004B000260002007546FFF7B5FFAE460500694607
:1004C000534620F00700854618B020B5FFF798FF87
:1004D000BDE820404FF000064FF000074FF0000845
:1004E0004FF0000B21F00701AC46ACE8C009ACE8C6
:1004F000C009ACE8C009ACE8C0098D467047704738
:1005000000000000F8B502460B460025002400203C
:100510000021D5E0012606FA01F51E6806EA050469
:10052000AC4274D11E7906F00306012E04D01E7968
:1005300006F00306022E13D190684F000326BE403A
:10054000B0434F00DE68BE403043906050680126E3
:100550008E40B0431E79C6F300168E403043506083
:100560001E7906F00306032E09D0D0684F0003263B
:10057000BE40B0434F009E68BE403043D0601E79FD
:1005800006F00306022E13D1CF0802F1200656F81A
:1005900027004E07F70E0F26BE40B0434F07FF0E51
:1005A0001E69BE403043CF0802F1200646F82700FE
:1005B00010684F000326BE40B0431E7906F00306C4
:1005C0004F00BE40304310605E6806F44036002E97
:1005D00075D000BF002600963B4E366846F4804634
:1005E000394F3E603E46366806F48046009600BFAE
:1005F00000BF364E8F0856F827008E07370F0F269C
:10060000BE40B043324EB24202D1002624E056E052
:10061000304EB24201D101261EE02F4EB24201D12E
:10062000022619E02D4EB24201D1032614E02C4ED1
:10063000B24201D104260FE02A4EB24201D1052672
:100640000AE0294EB24201D1062605E0274EB24209
:1006500001D1072600E008268F073F0FBE40304338
:100660001A4E8F0846F82700214E3068A0435E6876
:1006700006F4803606B120431D4E3060361D3068CA
:10068000A0435E6806F4003606B12043184E361DBE
:100690003060361D3068A0435E6806F4801606B1EF
:1006A0002043134E08363060361D3068A0435E6824
:1006B00006F4001606B120430D4E0C363060491C7E
:1006C0001029FFF427AFF8BD443802400838014034
:1006D000000002400004024000080240000C0240FA
:1006E000001002400014024000180240001C0240AA
:1006F000003C014001480068704700002C000020C9
:1007000010B504460CB9012010BD606A38B96068A4
:10071000B0F5827F00D105E00021E16102E0002117
:1007200021616161A06AB0F5005F00D100BF94F85B
:10073000510028B9002084F85000204600F04FF8FE
:10074000022084F851002068006820F040002168F1
:100750000860A08800F48270218901F404410843F4
:10076000A18901F400610843217C01F002010843E2
:10077000217D01F001010843218B01F40071084340
:10078000217F01F0380108432021095D01F080013B
:100790000843218D01F400510843216808600421B9
:1007A000A06901EA104094F8241001F010010843F8
:1007B00021684860A06AB0F5005F03D1A08D80B2C7
:1007C000216808612068C06920F400602168C86160
:1007D00000206065012084F85100002094E77047F4
:1007E0002DE9FC470446884617461D460020019027
:1007F00081466068B0F5827F0DD1A06858B90420A9
:1008000084F851003B46424641462046009500F0A0
:10081000EBF9BDE8FC8700BF94F85000012801D136
:100820000220F6E7012084F8500000BFFFF762FFC6
:10083000064694F85100012802D04FF00209D6E094
:10084000B8F1000F00D017B94FF00109CFE0042034
:1008500084F8510000206065C4F83880A787E787D6
:100860002063A086E08620646064A06AB0F5005F23
:1008700010D100BF2068006820F400502168086093
:100880002068006840F400502168086000BFE08FD5
:10089000401EE087A068B0F5004F0BD120680068CB
:1008A00020F04000216808602068006820F4804043
:1008B000216808602068006800F04000402805D0EA
:1008C0002068006840F0400021680860E068F8B9DE
:1008D0001AE02068806800F0010050B12068007BB9
:1008E000A16B0870A06B401CA063E08F401EE087E6
:1008F0000AE0FFF7FFFE801BA84201D3681C00B985
:1009000015B94FF0030972E0E08F0028E1D11EE035
:100910001AE02068806800F0010050B12068C068CB
:10092000A16B0880A06B801CA063E08F401EE08755
:100930000AE0FFF7DFFE801BA84201D3681C00B964
:1009400015B94FF0030952E0E08F0028E1D1A06A09
:10095000B0F5005F30D12068006840F48050216815
:1009600008602B46012211462046009600F088FCC4
:1009700010B14FF003093AE0E068B0F5006F04D120
:100980002068C068A16B088003E02068007BA16B31
:1009900008702B46012211462046009600F070FC9C
:1009A00030B1606D40F0020060654FF003091EE059
:1009B0002068C068019000BF32462946204600F0FA
:1009C0002FFB08B1202060652068806800F01000CF
:1009D000102807D1606D40F0020060654FF6EF709F
:1009E00021688860606D08B14FF0010900BF0120E7
:1009F00084F8510000BF002084F8500000BF484632
:100A000007E72DE9F84F0446884616461D464FF085
:100A1000000A00BF94F85000012802D10220BDE86E
:100A2000F88F012084F8500000BFFFF763FE0746EF
:100A3000B14694F85100012802D04FF0020AC9E0F3
:100A4000B8F1000F00D016B94FF0010AC2E0032040
:100A500084F8510000206065C4F83080A686E686E0
:100A6000A063A087E08760642064A068B0F5004FB1
:100A70000BD12068006820F04000216808602068E1
:100A8000006840F4804021680860A06AB0F5005F0B
:100A90000DD100BF2068006820F400502168086074
:100AA0002068006840F400502168086000BF20689A
:100AB000006800F04000402805D02068006840F041
:100AC000400021680860E068B0F5006F2FD16068D1
:100AD00010B1B9F1010F09D1206B00882168C860FD
:100AE000206B801C2063E08E401EE0861BE02068A7
:100AF000806800F0020002280AD1206B008821687B
:100B0000C860206B801C2063E08E401EE0860AE0F7
:100B1000FFF7F0FDC01BA84201D3681C00B915B94E
:100B20004FF0030A56E0E08E0028E0D12EE0606826
:100B300010B1B9F1010F09D1206B00782168087359
:100B4000206B401C2063E08E401EE0861BE0206886
:100B5000806800F0020002280AD1206B007821682A
:100B60000873206B401C2063E08E401EE0860AE084
:100B7000FFF7C0FDC01BA84201D3681C00B915B91E
:100B80004FF0030A26E0E08E0028E0D1A06AB0F51D
:100B9000005F05D12068006840F48050216808603B
:100BA0003A462946204600F085FA08B120206065C3
:100BB000A06850B900BF002000902068C068009075
:100BC00020688068009000BF00BF606D08B14FF0E2
:100BD000010A00BF012084F8510000BF002084F802
:100BE000500000BF50461AE72DE9F04F85B004468B
:100BF000884691461D460E9E0020039001200290DB
:100C00000020019000BF94F85000012803D1022079
:100C100005B0BDE8F08F012084F8500000BFFFF759
:100C200069FD074694F851B060680490AA46BBF18C
:100C3000010F0BD00498B0F5827F04D1A06810B9E1
:100C4000BBF1040F02D0022001902CE1B8F1000F9B
:100C500003D0B9F1000F00D015B90120019022E1B5
:100C600094F85100042802D0052084F85100002097
:100C70006065C4F83890E587A587C4F83080E586BC
:100C8000A58620646064A06AB0F5005F0DD100BF46
:100C90002068006820F4005021680860206800681F
:100CA00040F400502168086000BF2068006800F030
:100CB0004000402805D02068006840F040002168CE
:100CC0000860E068B0F5006F56D1606810B1BAF105
:100CD000010F09D1206B00882168C860206B801C3F
:100CE0002063E08E401EE0863FE02068806800F0D0
:100CF000020002281CD1E08ED0B10298012817D141
:100D0000206B00882168C860206B801C2063E08E07
:100D1000401EE08600200290E08E48B9A06AB0F53F
:100D2000005F05D12068006840F4805021680860A9
:100D30002068806800F0010068B1E08F58B1206839
:100D4000C068A16B0880A06B801CA063E08F401E70
:100D5000E08701200290FFF7CDFCC01BB04204D316
:100D6000701C10B1032001909DE0E08E0028BCD1E2
:100D7000E08F0028B9D156E0606810B1BAF1010FD8
:100D800009D1206B007821680873206B401C206318
:100D9000E08E401EE08640E02068806800F002009F
:100DA00002281CD1E08ED0B10298012817D1206B07
:100DB000007821680873206B401C2063E08E401E81
:100DC000E08600200290E08E48B9A06AB0F5005F8E
:100DD00005D12068006840F48050216808602068D0
:100DE000806800F0010068B1E08F58B12068C068E9
:100DF000A16B0870A06B401CA063E08F401EE087D1
:100E000001200290FFF776FCC01BB04201D3701C9A
:100E100000B916B90320019045E0E08E0028BBD14F
:100E2000E08F0028B8D1A06AB0F5005F12D1334638
:100E3000012211462046009700F022FA30B1606D81
:100E400040F002006065032001902CE02068C0683B
:100E5000039000BF2068806800F01000102809D1BE
:100E6000606D40F0020060654FF6EF7021688860A9
:100E7000012001903A463146204600F01BF920B18E
:100E800001200190202060650DE0A06850B900BFEE
:100E9000002000902068C068009020688068009062
:100EA00000BF00BF00BF012084F8510000BF002038
:100EB00084F8500000BF0198AAE6000010B5002198
:100EC000064800F041FC064908600846006810B971
:100ED0004FF0FF3010BD0020FCE70000C8290008DB
:100EE0000000002010B50021064800F02DFC064946
:100EF00008600846006810B94FF0FF3010BD0020B0
:100F0000FCE70000D8290008040000200EB500BF4F
:100F100000BF4FF0FF31012000F00AFC8DE8070010
:100F200018E00D48806940F400200B4988610846AC
:100F3000806940F00800886104F40040B0F5004F7B
:100F400004D101210F2000F009F803E001210F2056
:100F500000F004F8E5E7000000100240002907DD7A
:100F6000074A1268012383401A43054B1A6006E0C2
:100F7000034A1268012383409A43014B1A60704769
:100F8000140C024000B585B00948006840F0080024
:100F9000074908604FF47040009001200190022042
:100FA000039069460348FFF7ADFA05B000BD0000A5
:100FB00030380240000C02400FB438B501244FF421
:100FC0007A751648806940F40020144988618F20A2
:100FD00000902B462246694604A8FFF712FD002028
:100FE00000902B462246694604A8FFF7F9FB0B4800
:100FF000806940F00800094988619DF800003F2899
:1010000004D101210C20FFF7A9FF03E001210E20EC
:10101000FFF7A4FF38BC5DF814FB0000001002408D
:10102000F8B504460E4615466068B0F5827F0DD1CE
:10103000A068B0F5004F03D0A068B0F5806F05D16F
:101040002068006820F04000216808606068B0F502
:10105000827F1FD1A068B0F5806F0DD0334600228B
:1010600080212046009500F00BF908B3606D40F038
:10107000200060650320F8BD334600220121204690
:10108000009500F0FDF898B1606D40F020006065BB
:101090000320F0E73346002201212046009500F0AE
:1010A000EFF828B1606D40F0200060650320E2E7B2
:1010B0000020E0E77CB504460D4616461648006859
:1010C0001821B0FBF1F01549B0FBF1F04FF47A7143
:1010D000484301906068B0F5827F0DD12B46002215
:1010E00080212046009600F0CBF898B1606D40F06A
:1010F0002000606503207CBD00BF019800B908E0B6
:101100000198401E019020688068C0F3C01000283C
:10111000F3D100BF0020EEE73800002040420F006E
:1011200070B5C4B0064601244FF47A754F48006884
:1011300040F480504D4908604D482E904FF4827025
:101140002F9049152EA88161022101610121416181
:1011500000218160C16001622021C161FFF7D0FAE6
:10116000E020299002202A9000202B9002202C9031
:1011700005202D903D481438006840F001003B499F
:101180001439086029A93B48FFF7BCF908202990C9
:1011900001202A902B9002202C90344814380068AB
:1011A00040F0100031491439086029A93248FFF78E
:1011B000A9F93148006820F003002F49086008466B
:1011C000406940F0080048612E98006840F04000F7
:1011D0002E99086036222EA912A8FFF730F9BDF823
:1011E000EE00ADF87E003C982090BDF8F400ADF81C
:1011F0008400BDF8F600ADF8860011223EA922A8B1
:10120000FFF71DF99DF809018DF899004398279083
:10121000482216A96846FFF712F912A80FC8FFF76F
:10122000CBFE1548806940F40020134988612020D6
:1012300028902B46224628A92EA8FFF7E2FB032080
:1012400028902B46224628A92EA8FFF7DAFB0A4849
:10125000806940F00800084988610121074800685A
:1012600000F05AFA00F094FA44B070BD44380240DD
:101270000030014000000240001002400000002049
:101280002DE9F84F04460D4690461E46DDF828909D
:10129000FFF730FAA0EB0900371AFFF72BFA824666
:1012A0002C480068C0F3CB307843009045E0701CB8
:1012B000002842D0FFF71EFAA0EB0A00B84200D285
:1012C000A7BB2068406820F0E000216848606068A3
:1012D000B0F5827F0DD1A068B0F5004F03D0A068B3
:1012E000B0F5806F05D12068006820F040002168CB
:1012F0000860A06AB0F5005F0DD100BF20680068EB
:1013000020F40050216808602068006840F4005014
:101310002168086000BF012084F8510000BF002050
:1013200084F8500000BF0320BDE8F88FFFE7009865
:1013300000B900270098401E00902068806828406F
:10134000A84201D1012000E000204045AFD100209B
:10135000EAE70000380000204048006840F47000D0
:101360003E49086000203E4908603D480838006852
:1013700047F6C07188433A49083908600846006852
:1013800000F5A84008600846006820F44030086076
:101390000846006800F5803008600846006820F0C4
:1013A0003F0008600846006808300860081F0068B1
:1013B00040F48030091F086000BF29480C380068DD
:1013C00000F400300028F8D025483430006840F0A0
:1013D00080502349343108602248006840F480403E
:1013E000204908601E48083800681D49083908600F
:1013F000081F006840F08070091F086000BF18488F
:101400000C38006800F000700028F8D040F2056049
:10141000154908601248001F006820F003001049B9
:10142000091F08600846006840F00200086000BF1D
:101430000B48001F006800F00C000828F8D108488D
:10144000001F006840F4A0500549091F08600846C5
:10145000006840F4004008607047000088ED00E03C
:101460000C38024000700040003C024010B5002AD9
:1014700006DA22F00042D21D22F00703102203E018
:10148000D21C22F003030C2213B19C188C4201D908
:10149000012010BD024401448360C0E90021C91A43
:1014A000D018884202D810600246F9E70020106088
:1014B00010BD000005490978002905D000684FF6E5
:1014C000FF71DFF80CC000DF704700003D00002016
:1014D000311F000804490978002903D00068DFF8AB
:1014E0000CC000DF704700003D000020591E0008BE
:1014F00008480068C0010BD507480068C00707D03E
:10150000054880380068002802DA04490120087084
:1015100070470000FCED00E0800E00E0600000205D
:101520004FF06042D36F002BFCD0036BD367D36FB7
:10153000002BFCD0C07840EA0120A2F87C00704764
:101540004FF06041CA6F002AFCD081F87C007047E0
:101550000EB5802200B109B110460AE001780129D8
:10156000FAD101A900F046F8042801D0002000E0DB
:101570001020DDE9011203B000BD70B50D46040076
:1015800003D012B92078012801D0802070BD2046F8
:1015900000F05CFB28B12946204600F054F80020FA
:1015A00070BD812070BD70B50C4600F019FF4FF082
:1015B000004108B1220C01D0084670BD058BC178EE
:1015C000A0B200F003F8284670BD00000A460146AC
:1015D000074810B500EB820050F8040C002805D035
:1015E00000F028FDBDE8104000F014BD10BD000063
:1015F000E416002010B504468089002822D06089B6
:1016000004EB8000006908606078022805D10021A1
:10161000204600F00FFD00F0FDFC04F10C0000BFBF
:10162000D0E85F1F491E8AB2C0E8512F0029F7D1C8
:101630006089401C80B26081E189884201D100202C
:101640006081042010BD10B500F0F4FCBDE810402E
:1016500000F0E0BC10B5FFF795FC00F009F8FFF7CB
:101660002DFCFFF73FFC00F015F8002010BD000036
:10167000EFF3058008B182207047EFF31480C007B4
:1016800003D0DFF80CC000DF704701F02DB8000078
:10169000E926000888B0EFF3058010B1822008B079
:1016A0007047EFF3148010F00301134806D00129AE
:1016B0001BD0022911D0032919D113E008A981F305
:1016C00009880078C0070BD05FF0020080F314880F
:1016D000BFF34F8FBFF36F8F09E00078C00706D1CB
:1016E0000320F3E70078C00701D0FF20D7E7DFF839
:1016F0000CC000DFD3E70000002A000859270008CB
:10170000EFF305820AB1FFF723BFDFF808C000DF5F
:1017100070470000C5270008EFF305820AB1FFF704
:1017200042BFDFF808C000DF70470000FF27000855
:10173000EFF305830BB182207047DFF808C000DFAC
:101740007047000025280008EFF305820AB1002049
:101750007047EFF31482064B02F001025B781A43E4
:1017600003D0DFF810C000DF704701F085B800003B
:101770003C00002079280008DFF80CC000DFDFF80B
:101780000CC000DFFEE70000E9280008052900087A
:10179000EFF3058008B182207047DFF808C000DF52
:1017A000704700003D290008DFF804C000DF7047E3
:1017B00047290008094C4FF0FF3529462068FFF7FC
:1017C0009FFF02460846102AF7D1FFF7EDFF0028D9
:1017D000F3D0024608469047EFE700000C000020D7
:1017E000012806D0022805D0032804D0042804D1FB
:1017F00002E003E002E001E000E000BF00BF00BF44
:10180000FEE700BFFEE70000074801684FF0E02058
:10181000416100218161072101610448016841F0B3
:101820007F41016040177047FC29000820ED00E06F
:10183000704750E8001F31B10B6840E80032002AC1
:10184000F7D108467047BFF32F8FFAE710B568B19C
:1018500061B10B3121F00302016844680B1A1B1BB4
:10186000934205D2084609680029F5D1002010BD31
:10187000210007D021180368C1E90032016001F19D
:10188000080010BD4260083010BD000070B50D4664
:10189000002812D04FF6FF71084C884204D222680B
:1018A0000146104600F0F4FB20684570044800F043
:1018B00025F9BDE8704000F0BDBC70BD44000020BB
:1018C000741A00200F4810B50D4942680E480B6885
:1018D0000068934204D00A60CB88421E1A448A8072
:1018E0008A8880B282420AD100200860054800F050
:1018F00005F90146BDE81040024800F0EDBB10BDFF
:1019000058000020741A00205400002070B5194DB2
:10191000E86800282CD0A88A401EA882002621E072
:10192000A06838B161684160606810B1A1688160E9
:101930006660A6600F482146183800F0CDFBA08AEB
:10194000A8826078042804D10B49E08A09880844F9
:10195000A08201206070E068E860E06808B105617D
:10196000E6602661A88A002802D1EC68002CD7D155
:1019700070BD00008C1A00205400002070B50400D7
:101980000FD00D4DA17801262868827891420CD99C
:1019900000F0BEFB286846702046BDE8704000F0AD
:1019A00049BC064800F0AAF8F7E766702146BDE892
:1019B0007040024800F090BB44000020741A0020E0
:1019C00010B50446008B084320836278618B062A99
:1019D00018D0052A19D1084217D001EA0002628303
:1019E00088432083204600F0CDFB01206070628B8D
:1019F0000821204600F0BEFB2146BDE81040034808
:101A000000F06ABB31EA0002EAD010BD741A00206F
:101A10000246154810B500EB810050F8044C002C2C
:101A200021D0208B104320836278618B062A17D047
:101A3000052A18D1084216D001EA000262838843C1
:101A40002083204600F09EFB01206070628B0821FD
:101A5000204600F08FFB2046BDE81040FFF78EBF08
:101A600031EA0002EBD010BDE416002070B5034649
:101A70000C480D460468208B42B133EA000101D0C6
:101A8000062109E098432083022070BD10EA03017B
:101A900001D06183F6E7052163832846FFF7F6FE50
:101AA000012070BD44000020814202D342688A4276
:101AB00001D80120704702680A60BFF35F8F50E8C9
:101AC000003F0A689A42F6D140E80012002AF2D19B
:101AD0000020704768B161B10022083902E0024677
:101AE000006830B18842FAD12AB100681060002045
:101AF00070470120704700214160F8E701464068C7
:101B000042684A600B780022022B05D0012B03D0DB
:101B1000032B01D04260704743680BB1996042606B
:101B2000826070470649074B48681B6882789B783B
:101B30009A4202D142684A60704700207047000014
:101B4000741A002044000020810700D00020704754
:101B500070B5044600201546207001226270A17005
:101B600084F824106060A060E06020612062A082A0
:101B7000E0822083608384F82500E08C18B9054852
:101B8000FFF757FEE06229462046BDE8704000F0AE
:101B90001DB80000E001002008B1082901D2012091
:101BA00070470144091F002201600A60426010462C
:101BB0007047000003480021016003490988C18083
:101BC0007047000058000020F029000870B5C28C52
:101BD0001C4D930802D12A88C2F38D03C26A02EB1E
:101BE0008302540700D5121F4FF0807442E902149B
:101BF00000242646B2F1400242F82460641C0E2CF8
:101C0000FAD3C4691462826201632968C90014D5D9
:101C1000112B12D94FF0FF31103B11EB53014FF054
:101C2000CC3305D042F8043C42F8083D491EF9D1B6
:101C3000C16A121F8A4200D91360C06A024901605A
:101C400070BD0000EC290008A52E5AE2C1898089E8
:101C5000081A7047012202700022427082704260AE
:101C600002814281103982818908C1817047000058
:101C70002DE9F041044640680E464FF0000804F19B
:101C80000C05E8B36078012701283ED0022813D064
:101C900003285CD10846FFF7CCFD050057D020464D
:101CA000FFF72CFF0446294600F05EFA67702046D5
:101CB00000F068FA214621E02046FFF71FFF0646A4
:101CC000002100F051FA2189F06904EB81010861DB
:101CD000D5E85F0F401C81B2C5E8501F0028F7D13E
:101CE0002089401C80B22081E189884201D1A4F87A
:101CF00008807770304600F045FA3146174800E01A
:101D00000CE0BDE8F04100F0E7B92046FFF7F6FE31
:101D100004463246102100F02DFAC7E7A089E18978
:101D2000884216D2208904EB80000661D5E85F0F57
:101D3000401C81B2C5E8501F0028F7D12089401C03
:101D400080B22081E189884201D1A4F80880BDE8F1
:101D5000F081BDE8F0410320FFF742BD741A002076
:101D600070B50446808915460026C0B3608904EB2F
:101D70008000006908606089401C80B26081E18950
:101D8000884200D16681606810B1607802280BD06B
:101D900014F10C04D4E85F0F401E81B2C4E8501F58
:101DA0000028F7D1002070BD2046FFF7A7FE0546AA
:101DB000002100F0D9F92189E86904EB810108616B
:101DC0002089401C80B22081E189884200D126818F
:101DD000284600F0D7F92846FFF7D0FDE2E7FFE7F5
:101DE0003DB10B48626801682AB1204600F074F9E1
:101DF00008E0012070BD616001684E600068846089
:101E00000120607008212846FFF740FDF1E700003F
:101E100044000020002814D0411C13D00C4A4FF677
:101E2000FE7190420CD800EB4002C2EBC012094890
:101E3000036803EBC202521EB2FBF3F0884204D9DE
:101E4000084670474FF6FF70704780B27047000039
:101E500000093D000C2A00082DE9F04104464088A5
:101E600020B1314DA1682A68914202D0FF20BDE81F
:101E7000F081401E0004000C608053D12968086A7C
:101E8000A04209D1E068086208E0C268A24202D11B
:101E9000E268C26002E010460028F6D191F8240002
:101EA0000A6A06E053681BB19B78834200D9184642
:101EB000D268002AF6D18870DFF870806168012648
:101EC00011B32046FFF71AFE0746002100F04CF937
:101ED000384600F057F96680A760386AE0603C62D7
:101EE0002968D8F804008A788078824201D338467D
:101EF00016E00E4800F0F0F839460C4800F0ECF817
:101F0000286846707E700AE0D8F804108A7829683C
:101F1000824207D9054800F0DFF8286846700020A3
:101F2000FFF72CFD0020A2E744000020741A0020D7
:101F300070B5184D0E4604464188286839B1A1682D
:101F4000814209D16088401C6080002070BDA06083
:101F5000016AE1600462F5E776B18A7880788242AE
:101F600003D28870A06800F0DDF8606830B12046C8
:101F7000296800F0B1F808E0012070BD28686060B1
:101F80002968002048602868846009213046FFF7EE
:101F90007DFCF1E74400002070B51B480121026878
:101FA0005170006800F0B4F8184D6C7818E000BF6C
:101FB00005EBC40148680278EAB1012A20D000F09C
:101FC0000DF9E878641C844200D100240F48801C7D
:101FD000D0E84F1F491EC9B2C0E8421F002AF7D1FE
:101FE000A8780028E4D16C700948FFF787FDBDE8A8
:101FF000704000F01FB9098989B2FFF7E1FCE0E702
:102000008968FFF735FEDCE74400002060160020F9
:10201000741A00200548017811B101214170704700
:1020200003494FF080500860704700004C000020CA
:1020300004ED00E0F0B4154DAB1CEE784FEA050757
:10204000D3E84F2FB24202D1BFF32F8F11E0521CC1
:10205000D4B2C3E8424F002AF2D100BFD7E84F2FD5
:10206000541CB44200D10024E4B2C7E8434F002B13
:10207000F4D1EB78934205D905EBC202C2E9010124
:10208000F0BC7047F0BC0220FFF7AABB601600202E
:10209000104A10B5D368ABB113469B8A03E08CB1EC
:1020A0002246A48A2344D4688B42F8D3C460D0600B
:1020B0000261C46804B12061591A8182908A401A71
:1020C000908210BD0024C460D060C91A0261918260
:1020D000848210BD8C1A002030B502780023022AB9
:1020E00003D0012A01D0032A00D101238C7800E01B
:1020F0001046426812B19578A542F9D24A60416013
:102100001BB102B19160886030BD0020FBE7000088
:1021100003494A68426000228260486070470000BC
:10212000741A002010B5836804462BB96078012822
:102130000ED1084B03E09B6818780028FBD020469E
:1021400000F034F82146BDE810401846FFF7C4BF40
:1021500010BD0000741A002090F82510806A09B1A3
:10216000603070472030704710B50C46FFF7F4FF21
:10217000046010BD70B515460C46FFF7EDFFC0E9D1
:10218000004570BD10B5016900290ED0C268CA6053
:10219000C36800223BB18B8A848A23448B82C36844
:1021A0001961C26000E08A82026110BD816839B1A4
:1021B00042684A604168002901D0806888607047A1
:1021C000054906E04A68824202D14068486070478B
:1021D00011460029F6D17047741A002010B54168E5
:1021E00081B1FFF78BFC0446FFF7CCFF0120607044
:1021F00001462046FFF7B8FF2146BDE810400348DE
:10220000FFF76ABF4188491C418010BD741A002045
:1022100006480068D0E90A10814203D300680449E7
:10222000884202D00120FFF7DBBA7047440000204B
:10223000A52E5AE20749022248604270064A1278E7
:10224000002A05D006C98A4202D0C078FFF778B9C3
:1022500070470000440000206000002070B5FFF7C8
:1022600047F900200446204A204902E042F8204075
:10227000401C0B889842F9D31D48342201881D4820
:10228000FFF7F4F81C48008880B240F000421B4879
:1022900001681B48FFF7EAF81A48082201881A4823
:1022A0000068FFF7E3F8194DFF20194AE870EC8445
:1022B00000212846FFF74CFC1648042101704460B9
:1022C00015480170C4600461848214481549056092
:1022D000022068701248047044700978C170BDE82B
:1022E0007040FFF767BC0000E4160020E8290008F2
:1022F000142A000868000020EC290008182A0008A9
:10230000E00100203C2A000814000020401A0020B0
:1023100003180008741A00208C1A002044000020C2
:1023200060160020202A00081B4810B5016841F4FF
:102330007F01016000684FF07F4101EA00201649EB
:10234000C0431439B0FA80F00968C0F10800C1F345
:102350000221814200D3481C0F49091F0B686FF00E
:102360008072824063F317020A60FFF74DFA0B494F
:10237000002808600EDB00F1E021FF2281F8002434
:1023800000F01F02012191404009800000F1E0208F
:10239000C0F8001110BD000020ED00E0500000204A
:1023A0000C4810B50268012151700068FFF7B0FEBB
:1023B000FFF788FA08480168491C0160FFF7A6FA90
:1023C00000F0CEFA0548FFF799FBBDE81040FFF793
:1023D00031BF00004400002054000020741A002087
:1023E000002805D0810702D10178002900D0002003
:1023F0007047000030B50B4C0023626805E095681B
:102400008D4204D813461268491B002AF7D1026096
:10241000816012B19568691A91600BB1186030BD86
:10242000606030BD3C0000202DE9F0411E4617469B
:1024300080460D4611F0FF0F00D14D1C1848FFF7E4
:10244000F8F9041E16D0280AE762E084E9B2424691
:102450002046E661FFF77CFB01251248124905E0A2
:1024600000EB850252F8042C32B16D1C0A889542AB
:10247000F6D90020BDE8F081002DFAD000EB8500F0
:1024800040F8044C0948E570007818B10121204655
:10249000FFF746F82046FFF771FA2846EAE7000002
:1024A00068000020E4160020E829000860000020F1
:1024B0002DE9F05F584DDFF85891DFF85881296811
:1024C0004FF0010A002618B1CA78AB46824243D1C8
:1024D0004E70FDF7BEFE29688862FFF799FE2868F6
:1024E000046A1FE06068C0B12046FFF707FB07469B
:1024F0000021FFF739FE3846FFF744FE87F801A0B8
:1025000039464648FFF7E8FDE168A4F802A0A76055
:10251000386AE0603C620C4604E0E0686680A660D1
:10252000E6600446002CDDD12868C27808EB820101
:1025300041F8046CC16A3A48FFF7B6FA2868C662E7
:1025400099F8001011B10021FEF7EAFF354829681B
:10255000FFF7AAFA2E6056E03349098888420CD862
:1025600008EB800858F8045C3DB12846FFF71EFED2
:102570002846FFF707FE2C6A22E0FF20BDE8F09F07
:102580006068C0B12046FFF7B9FA07460021FFF79F
:10259000EBFD3846FFF7F6FD87F801A039461F48E6
:1025A000FFF79AFDE168A4F802A0A760386AE0602E
:1025B0003C620C4604E0E0686680A660E660044683
:1025C000002CDDD148F8046C1548E96AFFF76CFA75
:1025D000EE6299F8000018B100212846FEF7A0FF2E
:1025E00029461048FFF760FA0C48DBF800104068F5
:1025F0008B7882789A4209D981F801A00748DBF8E4
:102600000010FFF769FD0020FFF7B8F90020B5E7DB
:1026100060000020E416002044000020741A00200E
:10262000E001002068000020E829000870B5FFF7ED
:1026300079FA04000CD0074D07482968FFF74CFDD4
:102640002968012048702046BDE87040FFF7F2BDC0
:1026500070BD000044000020741A002070B51A4DAF
:1026600080B11A4A128890421FD8194A02EB8000A2
:1026700050F8044CCCB1A17084F824102868A04212
:1026800005D014E028688170286880F8241011486B
:1026900040688078884215D90E482968FFF71CFDEC
:1026A00029680120487000200AE0FF2070BD204604
:1026B000FFF738FD6078012804D10648FFF71EFABD
:1026C000FFF75CF9002070BD44000020E8290008F5
:1026D000E4160020741A002002480068002800D088
:1026E000C07870474400002010B5134C207860B9C2
:1026F0001248400705D1124801681048FFF74CFA0C
:1027000008B1852010BDFFF7A9FD0E49FF2009681B
:102710008870207858B900210B4800F041F80B4927
:10272000086000210A4800F0A7F80A490860012063
:1027300020700020607010BD3C000020B01400200C
:102740001C2A000844000020342A00080C00002045
:10275000242A00080800002070B50F4D687808B1E1
:10276000002070BD0D4C206890F824100020FFF769
:1027700075FF2068C178FF2903D1816A203181F378
:102780000988616811B9606000202060FFF7CCFD06
:1027900001206870E4E700003C00002044000020B5
:1027A00010B5040005D0216819B1606808B102783D
:1027B0000AB1002010BD8900103189B2FFF74AFA32
:1027C000606810BD3EB504000D464FF0800012D089
:1027D000217801290FD12846FFF71CFB024620462D
:1027E00001A9FFF7BDFA012801D0102003E00DB1C7
:1027F000402000E00020DDE9011203B030BD70B5DB
:102800000C46FFF7EDFD4FF0004108B1220C01D05E
:10281000084670BD058BC178A0B2FFF7F9F82846CD
:1028200070BD000070B504460D46000C01D0862036
:102830001EE008462CB1FFF7EDFA0146A0B20122D6
:1028400005E0FFF7E7FA014600224FF6FF70FFF7B9
:102850000DF9022802D04DB1402008E008200CB14B
:10286000214605E003490968498B01E00020002169
:10287000324670BD4400002070B50E4604002BD0D7
:10288000206848B3B4F9040010F1030F24DB0328D7
:1028900022DCE16829B11148FEF7D8FF05001BD002
:1028A00000E00025B4F90400E168001D40EA0121C0
:1028B00033462A462068FFF7B7FD40B1084901EBCF
:1028C0008000084950F8040C826A516370BD1DB144
:1028D00029460248FFF7FEF8002070BDB014002022
:1028E000E41600207917000810B5FFF7F5FE002860
:1028F00004D0034901EB800050F8040C10BD000027
:10290000E416002010B5FFF76BFD18B1C18C19B1AA
:10291000C46A02E0802010BD0024C078FFF7C8FD23
:10292000FF2806D01CB121460348FFF7D3F800204A
:1029300010BD812010BD0000B014002010B5FFF7BD
:1029400075FE002010BD10B5FFF7FEF820B14169FB
:102950000A680169104610BD0020014610BD000044
:102960002DE9F041134E7468002C1CD0A068124F62
:10297000401E4FF00108A06012E0254624687460F4
:10298000002229463868FEF7F8FD10B10420FEF752
:1029900027FF6879012808D085F80480002C02D030
:1029A000A0680028E9D0BDE8F0812846E968FFF773
:1029B00021FDF3E73C0000200C0000204FF04070A8
:1029C000E1EE100A704700000D0F00080000000043
:1029D00001000000000000002111000800000000BC
:1029E00001000000000000000700000020030201B9
:1029F00005000100007A030AA80000003F900200D1
:102A0000010000000200010050000400E803000083
:102A10000000000078010000D0120000B0010000AA
:102A200010000000B51700080200000001000000BF
:102A3000C800000004000000001700200000000093
:102A4000602A00080000002064000000C4010008A3
:102A5000C42A000864000020A4200000E00100084F
:102A60000000000000000000000000000000000066
:102A700000000000000000000000000055160008E3
:102A80000000000001000000C8000000000000007D
:102A900010000000010000000024F400000000000D
:102AA0000000000000000000000000000000000026
:102AB0000000000000000000000000000000000016
:042AC0000000000012
:04000005080003E507
:00000001FF
